:020000040000fa
:080000000002040000000000f2
:020000040000fa
:100008009a0200009a0200009a0200009a02000078
:100018009a0200009a0200009a0200009a02000068
:100028009a0200009a0200009a0200009a02000058
:100038009a0200009a0200009a0200009a02000048
:020000040000fa
:020000040000fa
:100400000f8220000eff20000e0188000000000077
:10041000000020000000e000020032000001200087
:10042000200288000c0007006080200001002000ee
:1004300011000700000020000000e0000200320070
:10044000000002000000000084050200000000001f
:100450000040da000000fe004440a900c000200077
:100460000000e0000300320000002000a00188002e
:100470004440a80000000600910188008000780038
:100480000000eb0015003700e280400032a0b4000d
:100490009101ba00e280400032a0b4009102ba009b
:1004a000e280400032a0b4000002eb00472bde00e7
:1004b000f507b200602ce10004003a000059eb009f
:1004c0008301e900fdff3e00040037006128e100e0
:1004d000010032000082eb00040007001101ba00a5
:1004e0000200e000e8ff3a00000006003159ba00bf
:1004f0008301e9000c0032002159ba008301e900b0
:10050000080032000400e00003003a00e2804000ee
:1005100032a0b400f5ff370011d9ba008301e90019
:10052000faff3a008100e800e180400032a0b40008
:10053000000006000040da000000fe00889fbe00b8
:100540008a9fbe003004be002005be0004044400a3
:1005500085844c0006054d0087854d000898be0037
:100560000a90be000440e10005c8e10006d0e100a9
:1005700007d8e10002003100680040001008e800e0
:100580004f05be004f04be00000006001000fa0038
:10059000889fbe008a9fbe00110020000605be0095
:1005a0000404be003002be002003be00c4b79f009a
:1005b000d5b79f00e6b79f00f7b79f00080252002b
:1005c00089825a000a035b008b835b0084bf9f0013
:1005d00095bf9f00a6bf9f00b7bf9f000498be00b5
:1005e0000698be004fb29700dfb297006fb3970036
:1005f000ffb397000820e10009a8e1000ab0e1007c
:100600000bb8e100010039008000eb004f05be008f
:10061000108810004f04be000080fa0000000600a1
:100620001400fa00889fbe008a9fbe008c9fbe0007
:100630000006eb003e000700ccb79f00bcb79f0050
:10064000acb79f009cb79f008cb79f000605be000b
:100650000404be000d0420004fb39700bfb2970002
:10066000860343002fb29700e00f530004003d00c3
:100670003d0007000f004000b0ff070003003700f7
:10068000390007000f004000c0ff0700cfb29700fd
:1006900095bf9f00e08f5200090035002b00070036
:1006a00014002000050020006033b8000000720034
:1006b0008180720002017300838173001c000700b7
:1006c0000c06e8008d0f5600e3ff3a001fba9700b2
:1006d000e00f520005003d000802be000a03be0004
:1006e00000fe2f000f00400094ff07004faa970064
:1006f000e00f520008003a000fb497009fb4970033
:100700002fb59700bfb59700d8b79f00e9b79f00f6
:10071000fab79f008bbf9f000c0007004f06be007a
:100720004f05be004f04be000080fa000000060026
:10073000010007000000060090b79f00a1b79f00ce
:10074000b2b79f00c3b79f0000000600010007007a
:10075000000006001fb09700afb097003fb19700b0
:10076000cfb19700000006004f2bde00f9ff070015
:1007700086837300858242004f23de00a7b79f0067
:10078000868272000402420095b79f00ffaa97007c
:100790004f2bde00858242000602720084b79f0064
:1007a0006faa97004f23de00040242008682720087
:1007b000f5af9f004f18de0000027200e5ff070052
:1007c000e4af9f0000004000818048000201490022
:1007d000838149000802be000a03be00d6ff07005d
:1007e00000fe2f0000000600881f7800180020007f
:1007f000881f78008aff07008f87e9004f04780080
:1008000000000600801feb0085ff07008f87e900ce
:1008100000000600889fbe008a9fbe00e00f5000c7
:10082000e08f5800e00f5900e08f59000c003d00a8
:100830006044b8006055b8000000540081805c003e
:1008400002015d0083815d00180020001500070093
:1008500008003d00180007000004eb000500370009
:100860000004eb000f00070002003d00120007002b
:1008700018002000dcff0700e00f540006003200e3
:100880006022b8006033b8000000520081805a0036
:1008900002015b0083815b004f05be004f04be0078
:1008a00000000600e00f5200e08f5a00e00f5b00ee
:1008b000e08f5b00000006006044b8006055b8009f
:1008c0000402540085825c0006035d0087835d009e
:1008d00000000600889fbe008a9fbe008c1f780023
:1008e000e00f5000e08f5800e00f5900e08f5900f2
:1008f0000d003d006044b8006055b8001c002000a9
:100900000000540081805c0002015d0083815d0075
:100910000820e10009a8e1000ab0e1000bb8e100fd
:100920000d003d00080037000006eb00e00f52000c
:10093000e08f5a00e00f5b00e08f5b0006003d0097
:100940006044b8006055b8000402540085825c0021
:1009500006035d0087835d00aaff0700e00f5600d5
:10096000060032006022b8006033b8000000520078
:1009700081805a0002015b0083815b004f06780092
:100980004f05be004f04be0000000600889fbe0059
:100990008a9fbe008c1f78000006eb00e00f50001d
:1009a000e08f5800e00f5900e08f590007003d002c
:1009b0006044b8006055b8001c00200000005400de
:1009c00081805c0002015d0083815d00e00f5200c8
:1009d000e08f5a00e00f5b00e08f5b0007003d00f6
:1009e0006044b8006055b8000c00a2000402540036
:1009f00085825c0006035d0087835d000c000700b4
:100a0000e00f5600060032006022b8006033b800e4
:100a10000000520081805a0002015b0083815b006c
:100a20004f0678004f05be004f04be0000000600d0
:100a3000889fbe008a9fbe008c9fbe000404b80041
:100a40000506b8008904460060854e000606b80019
:100a50000a054600e0854e000706b8008b054600f3
:100a6000040eb800890446000a854e00e0854d005a
:100a7000050eb8000a0546008b854e00060eb8002c
:100a80008b0546000416b8000a0546008b854e000b
:100a90000516b8008b054600041eb8008b054600fd
:100aa0000800be000a01be004f06be004f05be0092
:100ab0004f04be000000060000027800020037006c
:100ac000315a78000201e900e00f5100fcff3a00c2
:100ad000000006000002780002003700015a78008a
:100ae0000201e900e00f5100fcff3a00000006009f
:020000040000fa
:100af000507200006573000073200000486500001c
:080b0000726500000000000016
:020000040000fa
:100b08000800fa00c922a9000000eb00250107002f
:100b1800bc00070010c0b300d700070010c0b30026
:100b2800d5000700e700070050c0b300d200070057
:100b380000dd2d000e01070060c0b300ce000700e5
:100b4800020220008000eb0000802000dfff070089
:100b580090c2b300c800070040c0b300c600070039
:100b6800400620000201070040062000000107009f
:100b7800c00d2000fe000700c0082000fc00070090
:100b8800b20020008157280000802000c8ff07001d
:100b98000002eb00040f78000600370004802000f4
:100ba8001e0242001442780004407800b200070098
:100bb8001e0fe8001e027800f70f5200f7ff3400fe
:100bc8000042eb0024479800e60247006402470011
:100bd80085007800040078002d00070000027800e6
:100be800e00f520012003200ae02900044062000ce
:100bf800848f52000e003600be029000440620008a
:100c0800848f52000a003600ae029000b40d200016
:100c1800848f520006003e00be029000b4082000f7
:100c2800848f520002003e0004c8b3002447980095
:100c38002e429000e04f520005003d0040c0b30036
:100c48008d000700208b2f00c90007000400370023
:100c580040c0b3008800070000802800c4000700d7
:100c680010c1b30084000700000a2000c00007007c
:100c780080022000be00070040012000bc000700e1
:100c8800200320000100200040000700ccff3700af
:100c98000600fa00100798002107980070c2b300f8
:100ca800750007002e0290008002eb00050a78000c
:100cb8002e029000940278001e029000050a780027
:100cc800c400070000427800044f7800c100070004
:100cd80000427800144798001e4290000482fb00ee
:100ce8004822dd00840278001e4378000682fb005b
:100cf8000403780005037300860278001e02900042
:100d0800050a7800b300070000427800044f780015
:100d1800b000070000427800144798001e42900077
:100d28000482fb004822dd00840278001e4378001c
:100d38000682fb000403780005037300860278002e
:100d48002e029000050a78006d0007001e02900030
:100d580014027800e10f420002003a000002eb00a2
:100d6800070037002e02900014027800e10f4200bd
:100d780002003a000002eb000100370014002000d6
:100d8800040078000080fa00000006000400fa0061
:100d9800889fbe008a9fbe00008fbe001e04be0052
:100da8000005eb008005eb0004202100a5072000ca
:100db8006033b8000800be000a01be00f1fe07005b
:100dc8000203be000002be000400be000601be0011
:100dd800843e2000050020006033b80080fe070034
:100de8000203be000002be000402be000400be00f2
:100df800510007004f05be004f04be000080fa00f6
:100e0800000006000200fa00cd22a800803e200063
:100e180001002000ddff07000002eb00040f78004e
:100e280009003700cd22a90040062000010020005b
:100e3800d6ff0700cd22a8004006200001002000b0
:100e4800d2ff07001e0fe8001e027800e40f5200d0
:100e5800f4ff3400803e200001002000cbff070093
:100e6800cd22a900803e200001002000c7ff070016
:100e78000080fa00000006000200fa00004f780027
:100e88000000000015118000042020000482620088
:100e9800e00f5200fbff3a0000000000151180002f
:100ea8000410200004826200e00f5200fbff3200b1
:100eb8009e4278000582fb00241188000080fa0019
:100ec800000006000200fa000002eb00040f7800a0
:100ed800060037000040eb00e7ff0700a0002000f5
:100ee80001002000a9ff07001e0fe8001e0278007d
:100ef800f30f5200f7ff34000080fa0000000600ec
:100f08000200fa0034118000044f78003411800088
:100f1800044f780034118000044f780034118000a9
:100f2800044f780034118000044f78002222a90071
:080f38000080fa000000060031
:020000040000fa
:100f4000f03fb1000180b10006003500ee0309005a
:100f500000000000403fb1000180b100fbff3d00f8
:100f60001000b000203fb0000200350000800900f2
:080f7000000000000000060073
:020000040000fa
:100f78000200fa00000f78001e0278000442780090
:100f880004407800bcff07001e0278004822de00fb
:100f98000442780004407800b7ff07000080fa0098
:100fa800000006000200fa00000f7800e244a900e1
:100fb800c40020004411880004002800041188009f
:100fc80004442000141188008560a9000080fa00fc
:100fd800000006000000fa008560a900000000007b
:100fe8001411800061026200e00f5200fcff320021
:100ff8003411800004427800044078000080fa0030
:0410080000000600de
:020000040000fa
:10100c0000080000200000000000000000000000ac
:020000040000fa
:0200000401f009
:04000c00f9ff0000f8
:020000040000fa
:0200000401f009
:040014005fff00008a
:00000001FF
